{
  "_format": "hh-sol-artifact-1",
  "contractName": "ProposalStorage",
  "sourceName": "contracts/module-voting/proposals/ProposalStorage.sol",
  "abi": [
    {
      "inputs": [
        {
          "internalType": "address",
          "name": "_baseModule",
          "type": "address"
        }
      ],
      "stateMutability": "nonpayable",
      "type": "constructor"
    },
    {
      "anonymous": false,
      "inputs": [
        {
          "indexed": false,
          "internalType": "bytes32",
          "name": "optionID",
          "type": "bytes32"
        },
        {
          "indexed": false,
          "internalType": "bytes32",
          "name": "moduleIdentifier",
          "type": "bytes32"
        },
        {
          "indexed": false,
          "internalType": "address",
          "name": "moduleImplementation",
          "type": "address"
        },
        {
          "indexed": false,
          "internalType": "bytes4",
          "name": "functionSignature",
          "type": "bytes4"
        },
        {
          "indexed": false,
          "internalType": "string",
          "name": "requiredData",
          "type": "string"
        }
      ],
      "name": "OptionRegistered",
      "type": "event"
    },
    {
      "inputs": [],
      "name": "ModuleIdentifier",
      "outputs": [
        {
          "internalType": "bytes32",
          "name": "",
          "type": "bytes32"
        }
      ],
      "stateMutability": "view",
      "type": "function"
    },
    {
      "inputs": [],
      "name": "SubModuleIdentifier",
      "outputs": [
        {
          "internalType": "bytes32",
          "name": "",
          "type": "bytes32"
        }
      ],
      "stateMutability": "view",
      "type": "function"
    },
    {
      "inputs": [
        {
          "internalType": "bytes32",
          "name": "_optionIdentifier",
          "type": "bytes32"
        },
        {
          "internalType": "bytes",
          "name": "_parameters",
          "type": "bytes"
        },
        {
          "internalType": "uint256",
          "name": "_expiryTimestamp",
          "type": "uint256"
        },
        {
          "internalType": "address",
          "name": "_proposer",
          "type": "address"
        }
      ],
      "name": "createProposal",
      "outputs": [
        {
          "internalType": "uint256",
          "name": "",
          "type": "uint256"
        }
      ],
      "stateMutability": "nonpayable",
      "type": "function"
    },
    {
      "inputs": [],
      "name": "endSetUp",
      "outputs": [],
      "stateMutability": "nonpayable",
      "type": "function"
    },
    {
      "inputs": [],
      "name": "getBaseDao",
      "outputs": [
        {
          "internalType": "address",
          "name": "",
          "type": "address"
        }
      ],
      "stateMutability": "view",
      "type": "function"
    },
    {
      "inputs": [
        {
          "internalType": "string",
          "name": "_identifier",
          "type": "string"
        }
      ],
      "name": "getBytes32Of",
      "outputs": [
        {
          "internalType": "bytes32",
          "name": "",
          "type": "bytes32"
        }
      ],
      "stateMutability": "view",
      "type": "function"
    },
    {
      "inputs": [],
      "name": "getCurrentTime",
      "outputs": [
        {
          "internalType": "uint256",
          "name": "",
          "type": "uint256"
        }
      ],
      "stateMutability": "view",
      "type": "function"
    },
    {
      "inputs": [
        {
          "internalType": "bytes32",
          "name": "_identifier",
          "type": "bytes32"
        }
      ],
      "name": "getModuleFromBase",
      "outputs": [
        {
          "internalType": "address",
          "name": "",
          "type": "address"
        }
      ],
      "stateMutability": "view",
      "type": "function"
    },
    {
      "inputs": [],
      "name": "getModuleIdentifier",
      "outputs": [
        {
          "internalType": "bytes32",
          "name": "",
          "type": "bytes32"
        }
      ],
      "stateMutability": "view",
      "type": "function"
    },
    {
      "inputs": [
        {
          "internalType": "uint256",
          "name": "_propID",
          "type": "uint256"
        }
      ],
      "name": "getProposalInfo",
      "outputs": [
        {
          "internalType": "bytes32",
          "name": "optionIdentifier",
          "type": "bytes32"
        },
        {
          "internalType": "bytes",
          "name": "parameters",
          "type": "bytes"
        },
        {
          "internalType": "uint256",
          "name": "expiryTimestamp",
          "type": "uint256"
        },
        {
          "internalType": "address",
          "name": "proposer",
          "type": "address"
        }
      ],
      "stateMutability": "view",
      "type": "function"
    },
    {
      "inputs": [],
      "name": "init",
      "outputs": [],
      "stateMutability": "nonpayable",
      "type": "function"
    },
    {
      "inputs": [],
      "name": "isSubModule",
      "outputs": [
        {
          "internalType": "bool",
          "name": "",
          "type": "bool"
        }
      ],
      "stateMutability": "view",
      "type": "function"
    },
    {
      "inputs": [],
      "name": "registerOptionsOnModule",
      "outputs": [],
      "stateMutability": "nonpayable",
      "type": "function"
    }
  ],
  "bytecode": "0x60c060405234801561001057600080fd5b50604051610efc380380610efc8339818101604052602081101561003357600080fd5b81019080805190602001909291905050507f50726f706f73616c53746f7261676500000000000000000000000000000000008181600060018382600260006101000a81548173ffffffffffffffffffffffffffffffffffffffff021916908373ffffffffffffffffffffffffffffffffffffffff16021790555083608081815250506001600260156101000a81548160ff021916908360028111156100d457fe5b0217905550336000806101000a81548173ffffffffffffffffffffffffffffffffffffffff021916908373ffffffffffffffffffffffffffffffffffffffff16021790555081600060146101000a81548160ff021916908315150217905550600060149054906101000a900460ff161561018a5780600160006101000a81548173ffffffffffffffffffffffffffffffffffffffff021916908373ffffffffffffffffffffffffffffffffffffffff1602179055505b50505050600160009054906101000a900473ffffffffffffffffffffffffffffffffffffffff1673ffffffffffffffffffffffffffffffffffffffff1663b35c84556040518163ffffffff1660e01b815260040160206040518083038186803b1580156101f657600080fd5b505afa15801561020a573d6000803e3d6000fd5b505050506040513d602081101561022057600080fd5b8101908080519060200190929190505050600260006101000a81548173ffffffffffffffffffffffffffffffffffffffff021916908373ffffffffffffffffffffffffffffffffffffffff1602179055508160a0818152505050505060805160a051610c586102a46000398061053152508061055d52806109145250610c586000f3fe608060405234801561001057600080fd5b50600436106100cf5760003560e01c8063aec11eef1161008c578063bf8f77f911610066578063bf8f77f914610377578063e1c7392a14610395578063ee2ec0db1461039f578063f836c9eb1461046e576100cf565b8063aec11eef14610267578063b35c845514610271578063bc903cb8146102a5576100cf565b806306247614146100d457806329251f771461012c57806329cb924d1461014a5780636062beda14610168578063707af9631461018657806387d0135714610247575b600080fd5b610100600480360360208110156100ea57600080fd5b8101908080359060200190929190505050610478565b604051808273ffffffffffffffffffffffffffffffffffffffff16815260200191505060405180910390f35b61013461052f565b6040518082815260200191505060405180910390f35b610152610553565b6040518082815260200191505060405180910390f35b61017061055b565b6040518082815260200191505060405180910390f35b6102316004803603608081101561019c57600080fd5b8101908080359060200190929190803590602001906401000000008111156101c357600080fd5b8201836020820111156101d557600080fd5b803590602001918460018302840111640100000000831117156101f757600080fd5b909192939192939080359060200190929190803573ffffffffffffffffffffffffffffffffffffffff16906020019092919050505061057f565b6040518082815260200191505060405180910390f35b61024f6107a7565b60405180821515815260200191505060405180910390f35b61026f6107ba565b005b6102796107bc565b604051808273ffffffffffffffffffffffffffffffffffffffff16815260200191505060405180910390f35b6102d1600480360360208110156102bb57600080fd5b81019080803590602001909291905050506107e6565b60405180858152602001806020018481526020018373ffffffffffffffffffffffffffffffffffffffff168152602001828103825285818151815260200191508051906020019080838360005b8381101561033957808201518184015260208101905061031e565b50505050905090810190601f1680156103665780820380516001836020036101000a031916815260200191505b509550505050505060405180910390f35b61037f610910565b6040518082815260200191505060405180910390f35b61039d610938565b005b610458600480360360208110156103b557600080fd5b81019080803590602001906401000000008111156103d257600080fd5b8201836020820111156103e457600080fd5b8035906020019184600183028401116401000000008311171561040657600080fd5b91908080601f016020809104026020016040519081016040528093929190818152602001838380828437600081840152601f19601f82011690508083019250505050505050919291929050505061093a565b6040518082815260200191505060405180910390f35b6104766109b5565b005b6000600260009054906101000a900473ffffffffffffffffffffffffffffffffffffffff1673ffffffffffffffffffffffffffffffffffffffff166322dbefbb836040518263ffffffff1660e01b81526004018082815260200191505060206040518083038186803b1580156104ed57600080fd5b505afa158015610501573d6000803e3d6000fd5b505050506040513d602081101561051757600080fd5b81019080805190602001909291905050509050919050565b7f000000000000000000000000000000000000000000000000000000000000000081565b600042905090565b7f000000000000000000000000000000000000000000000000000000000000000081565b60007f566f74696e67426f6f74680000000000000000000000000000000000000000003073ffffffffffffffffffffffffffffffffffffffff166306247614826040518263ffffffff1660e01b81526004018082815260200191505060206040518083038186803b1580156105f357600080fd5b505afa158015610607573d6000803e3d6000fd5b505050506040513d602081101561061d57600080fd5b810190808051906020019092919050505073ffffffffffffffffffffffffffffffffffffffff163373ffffffffffffffffffffffffffffffffffffffff16146106ce576040517f08c379a00000000000000000000000000000000000000000000000000000000081526004018080602001828103825260168152602001807f4f6e6c79206964656e746966696564206d6f64756c650000000000000000000081525060200191505060405180910390fd5b6001600360008282540192505081905550866004600060035481526020019081526020016000206000018190555085856004600060035481526020019081526020016000206001019190610723929190610b77565b5083600460006003548152602001908152602001600020600201819055508260046000600354815260200190815260200160002060030160006101000a81548173ffffffffffffffffffffffffffffffffffffffff021916908373ffffffffffffffffffffffffffffffffffffffff16021790555060035491505095945050505050565b600060149054906101000a900460ff1681565b565b6000600260009054906101000a900473ffffffffffffffffffffffffffffffffffffffff16905090565b6000606060008060046000868152602001908152602001600020600001549350600460008681526020019081526020016000206001018054600181600116156101000203166002900480601f0160208091040260200160405190810160405280929190818152602001828054600181600116156101000203166002900480156108b05780601f10610885576101008083540402835291602001916108b0565b820191906000526020600020905b81548152906001019060200180831161089357829003601f168201915b50505050509250600460008681526020019081526020016000206002015491506004600086815260200190815260200160002060030160009054906101000a900473ffffffffffffffffffffffffffffffffffffffff1690509193509193565b60007f0000000000000000000000000000000000000000000000000000000000000000905090565b565b6000816040516020018082805190602001908083835b602083106109735780518252602082019150602081019050602083039250610950565b6001836020036101000a038019825116818451168082178552505050505050905001915050604051602081830303815290604052805190602001209050919050565b600160028111156109c257fe5b600260159054906101000a900460ff1660028111156109dd57fe5b14610a50576040517f08c379a00000000000000000000000000000000000000000000000000000000081526004018080602001828103825260158152602001807f5374617465206e6f74207265676973746572696e67000000000000000000000081525060200191505060405180910390fd5b60008054906101000a900473ffffffffffffffffffffffffffffffffffffffff1673ffffffffffffffffffffffffffffffffffffffff163373ffffffffffffffffffffffffffffffffffffffff1614610b11576040517f08c379a000000000000000000000000000000000000000000000000000000000815260040180806020018281038252600d8152602001807f4f6e6c79206465706c6f7965720000000000000000000000000000000000000081525060200191505060405180910390fd5b60028060156101000a81548160ff02191690836002811115610b2f57fe5b021790555060008060006101000a81548173ffffffffffffffffffffffffffffffffffffffff021916908373ffffffffffffffffffffffffffffffffffffffff160217905550565b828054600181600116156101000203166002900490600052602060002090601f016020900481019282610bad5760008555610bf4565b82601f10610bc657803560ff1916838001178555610bf4565b82800160010185558215610bf4579182015b82811115610bf3578235825591602001919060010190610bd8565b5b509050610c019190610c05565b5090565b5b80821115610c1e576000816000905550600101610c06565b509056fea26469706673582212206b999f5a5143ff0746d02bb5c5de461f1daae93d5a1dc594a16fcaad68036d5a64736f6c63430007060033",
  "linkReferences": {},
  "deployedLinkReferences": {}
}