{
  "_format": "hh-sol-artifact-1",
  "contractName": "SpokeDao",
  "sourceName": "contracts/spoke-dao/SpokeDao.sol",
  "abi": [
    {
      "inputs": [
        {
          "internalType": "address",
          "name": "_devolutionBase",
          "type": "address"
        }
      ],
      "stateMutability": "nonpayable",
      "type": "constructor"
    },
    {
      "anonymous": false,
      "inputs": [
        {
          "indexed": false,
          "internalType": "bytes32",
          "name": "identifier",
          "type": "bytes32"
        },
        {
          "indexed": false,
          "internalType": "address",
          "name": "oldModule",
          "type": "address"
        },
        {
          "indexed": false,
          "internalType": "address",
          "name": "module",
          "type": "address"
        },
        {
          "indexed": false,
          "internalType": "bool",
          "name": "moduleInUse",
          "type": "bool"
        }
      ],
      "name": "ModuleRegistryUpdated",
      "type": "event"
    },
    {
      "inputs": [],
      "name": "ModuleIdentifier",
      "outputs": [
        {
          "internalType": "bytes32",
          "name": "",
          "type": "bytes32"
        }
      ],
      "stateMutability": "view",
      "type": "function"
    },
    {
      "inputs": [
        {
          "internalType": "bytes32",
          "name": "_identifier",
          "type": "bytes32"
        }
      ],
      "name": "getModuleAddress",
      "outputs": [
        {
          "internalType": "address",
          "name": "",
          "type": "address"
        }
      ],
      "stateMutability": "view",
      "type": "function"
    },
    {
      "inputs": [
        {
          "internalType": "bytes32",
          "name": "_identifier",
          "type": "bytes32"
        }
      ],
      "name": "getModuleImplementationAndUse",
      "outputs": [
        {
          "internalType": "address",
          "name": "",
          "type": "address"
        },
        {
          "internalType": "bool",
          "name": "",
          "type": "bool"
        }
      ],
      "stateMutability": "view",
      "type": "function"
    },
    {
      "inputs": [
        {
          "internalType": "address",
          "name": "_votingInstance",
          "type": "address"
        },
        {
          "internalType": "address",
          "name": "_reputationInstance",
          "type": "address"
        },
        {
          "internalType": "address",
          "name": "_identityToken",
          "type": "address"
        }
      ],
      "name": "init",
      "outputs": [],
      "stateMutability": "nonpayable",
      "type": "function"
    },
    {
      "inputs": [],
      "name": "joinSpokeDao",
      "outputs": [],
      "stateMutability": "nonpayable",
      "type": "function"
    },
    {
      "inputs": [],
      "name": "killDao",
      "outputs": [],
      "stateMutability": "nonpayable",
      "type": "function"
    },
    {
      "inputs": [
        {
          "internalType": "bytes32",
          "name": "_identifier",
          "type": "bytes32"
        },
        {
          "internalType": "address",
          "name": "_newInstance",
          "type": "address"
        },
        {
          "internalType": "bool",
          "name": "_useNewInstance",
          "type": "bool"
        }
      ],
      "name": "updateModule",
      "outputs": [],
      "stateMutability": "nonpayable",
      "type": "function"
    }
  ],
  "bytecode": "0x60a060405234801561001057600080fd5b506040516113f53803806113f58339818101604052602081101561003357600080fd5b810190808051906020019092919050505080806000806101000a81548173ffffffffffffffffffffffffffffffffffffffff021916908373ffffffffffffffffffffffffffffffffffffffff1602179055507f53706f6b6544616f565f302e31000000000000000000000000000000000000006080818152505033600160006101000a81548173ffffffffffffffffffffffffffffffffffffffff021916908373ffffffffffffffffffffffffffffffffffffffff16021790555050506080516112eb61010a60003980610a7e52506112eb6000f3fe608060405234801561001057600080fd5b506004361061007d5760003560e01c806344c86a381161005b57806344c86a38146101685780636062beda146101c2578063dee31fda146101e0578063df553b04146102415761007d565b8063184b95591461008257806322dbefbb1461010657806336a122d91461015e575b600080fd5b6101046004803603606081101561009857600080fd5b81019080803573ffffffffffffffffffffffffffffffffffffffff169060200190929190803573ffffffffffffffffffffffffffffffffffffffff169060200190929190803573ffffffffffffffffffffffffffffffffffffffff16906020019092919050505061024b565b005b6101326004803603602081101561011c57600080fd5b8101908080359060200190929190505050610542565b604051808273ffffffffffffffffffffffffffffffffffffffff16815260200191505060405180910390f35b610166610582565b005b6101c06004803603606081101561017e57600080fd5b8101908080359060200190929190803573ffffffffffffffffffffffffffffffffffffffff16906020019092919080351515906020019092919050505061076d565b005b6101ca610a7c565b6040518082815260200191505060405180910390f35b61020c600480360360208110156101f657600080fd5b8101908080359060200190929190505050610aa0565b604051808373ffffffffffffffffffffffffffffffffffffffff16815260200182151581526020019250505060405180910390f35b610249610b07565b005b600160149054906101000a900460ff16156102ce576040517f08c379a00000000000000000000000000000000000000000000000000000000081526004018080602001828103825260198152602001807f4261736520686173206265656e20696e697469616c697365640000000000000081525060200191505060405180910390fd5b600160009054906101000a900473ffffffffffffffffffffffffffffffffffffffff1673ffffffffffffffffffffffffffffffffffffffff163373ffffffffffffffffffffffffffffffffffffffff1614610391576040517f08c379a00000000000000000000000000000000000000000000000000000000081526004018080602001828103825260188152602001807f4f6e6c79206465706c6f7965722063616e20616363657373000000000000000081525060200191505060405180910390fd5b6000600160006101000a81548173ffffffffffffffffffffffffffffffffffffffff021916908373ffffffffffffffffffffffffffffffffffffffff16021790555061041f7f4465766f6c7574696f6e44616f0000000000000000000000000000000000000060008054906101000a900473ffffffffffffffffffffffffffffffffffffffff166001610c9d565b61044b7f566f74696e67436f6f7264696e61746f72000000000000000000000000000000846001610c9d565b6104777f52657075746174696f6e436f6f7264696e61746f720000000000000000000000836001610c9d565b6104a37f4465766f6c7574696f6e53797374656d4964656e746974790000000000000000826001610c9d565b60018060146101000a81548160ff02191690831515021790555060008054906101000a900473ffffffffffffffffffffffffffffffffffffffff1673ffffffffffffffffffffffffffffffffffffffff1663c78956b46040518163ffffffff1660e01b8152600401600060405180830381600087803b15801561052557600080fd5b505af1158015610539573d6000803e3d6000fd5b50505050505050565b60006002600083815260200190815260200160002060000160009054906101000a900473ffffffffffffffffffffffffffffffffffffffff169050919050565b60008054906101000a900473ffffffffffffffffffffffffffffffffffffffff1673ffffffffffffffffffffffffffffffffffffffff1663a230c524336040518263ffffffff1660e01b8152600401808273ffffffffffffffffffffffffffffffffffffffff16815260200191505060206040518083038186803b15801561060957600080fd5b505afa15801561061d573d6000803e3d6000fd5b505050506040513d602081101561063357600080fd5b8101908080519060200190929190505050156106ef5760008054906101000a900473ffffffffffffffffffffffffffffffffffffffff1673ffffffffffffffffffffffffffffffffffffffff1663df56736a336040518263ffffffff1660e01b8152600401808273ffffffffffffffffffffffffffffffffffffffff168152602001915050600060405180830381600087803b1580156106d257600080fd5b505af11580156106e6573d6000803e3d6000fd5b5050505061076b565b60001515600115151461076a576040517f08c379a000000000000000000000000000000000000000000000000000000000815260040180806020018281038252601b8152602001807f53656e646572206d757374206a6f696e206465766f6c7574696f6e000000000081525060200191505060405180910390fd5b5b565b600260007f4f7074696f6e734578656375746f720000000000000000000000000000000000815260200190815260200160002060000160009054906101000a900473ffffffffffffffffffffffffffffffffffffffff1673ffffffffffffffffffffffffffffffffffffffff163373ffffffffffffffffffffffffffffffffffffffff1614610864576040517f08c379a00000000000000000000000000000000000000000000000000000000081526004018080602001828103825260168152602001807f4f6e6c79206578656375746f72206d61792063616c6c0000000000000000000081525060200191505060405180910390fd5b600160149054906101000a900460ff166108e6576040517f08c379a00000000000000000000000000000000000000000000000000000000081526004018080602001828103825260188152602001807f426173652044414f206e6f7420696e697469616c69736564000000000000000081525060200191505060405180910390fd5b6000803073ffffffffffffffffffffffffffffffffffffffff1663dee31fda866040518263ffffffff1660e01b815260040180828152602001915050604080518083038186803b15801561093957600080fd5b505afa15801561094d573d6000803e3d6000fd5b505050506040513d604081101561096357600080fd5b810190808051906020019092919080519060200190929190505050915091508173ffffffffffffffffffffffffffffffffffffffff168473ffffffffffffffffffffffffffffffffffffffff161415806109f857508173ffffffffffffffffffffffffffffffffffffffff168473ffffffffffffffffffffffffffffffffffffffff161480156109f7575080151583151514155b5b610a6a576040517f08c379a000000000000000000000000000000000000000000000000000000000815260040180806020018281038252601c8152602001807f4e6577206578656375746f72206164647265737320696e76616c69640000000081525060200191505060405180910390fd5b610a75858585610c9d565b5050505050565b7f000000000000000000000000000000000000000000000000000000000000000081565b6000806002600084815260200190815260200160002060000160009054906101000a900473ffffffffffffffffffffffffffffffffffffffff166002600085815260200190815260200160002060000160149054906101000a900460ff1691509150915091565b600260007f4f7074696f6e734578656375746f720000000000000000000000000000000000815260200190815260200160002060000160009054906101000a900473ffffffffffffffffffffffffffffffffffffffff1673ffffffffffffffffffffffffffffffffffffffff163373ffffffffffffffffffffffffffffffffffffffff1614610bfe576040517f08c379a00000000000000000000000000000000000000000000000000000000081526004018080602001828103825260168152602001807f4f6e6c79206578656375746f72206d61792063616c6c0000000000000000000081525060200191505060405180910390fd5b600160149054906101000a900460ff16610c80576040517f08c379a00000000000000000000000000000000000000000000000000000000081526004018080602001828103825260188152602001807f426173652044414f206e6f7420696e697469616c69736564000000000000000081525060200191505060405180910390fd5b6000600160146101000a81548160ff021916908315150217905550565b600082905060008173ffffffffffffffffffffffffffffffffffffffff1663bf8f77f96040518163ffffffff1660e01b815260040160206040518083038186803b158015610cea57600080fd5b505afa158015610cfe573d6000803e3d6000fd5b505050506040513d6020811015610d1457600080fd5b81019080805190602001909291905050509050848114610d9c576040517f08c379a000000000000000000000000000000000000000000000000000000000815260040180806020018281038252601a8152602001807f496d706c656d656e746174696f6e204944206d69736d6174636800000000000081525060200191505060405180910390fd5b60006002600087815260200190815260200160002060000160009054906101000a900473ffffffffffffffffffffffffffffffffffffffff16905060405180606001604052808673ffffffffffffffffffffffffffffffffffffffff1681526020018515158152602001600015158152506002600088815260200190815260200160002060008201518160000160006101000a81548173ffffffffffffffffffffffffffffffffffffffff021916908373ffffffffffffffffffffffffffffffffffffffff16021790555060208201518160000160146101000a81548160ff02191690831515021790555060408201518160000160156101000a81548160ff0219169083151502179055509050507f79016943bf7f9296c2d8ebbcbdd64da6c60d9021c5bba9eb0deafa42865e7faa86828787604051808581526020018473ffffffffffffffffffffffffffffffffffffffff1681526020018373ffffffffffffffffffffffffffffffffffffffff168152602001821515815260200194505050505060405180910390a161104b838473ffffffffffffffffffffffffffffffffffffffff1663f56a4c926040518163ffffffff1660e01b815260040160006040518083038186803b158015610f7157600080fd5b505afa158015610f85573d6000803e3d6000fd5b505050506040513d6000823e3d601f19601f820116820180604052506020811015610faf57600080fd5b8101908080516040519392919084640100000000821115610fcf57600080fd5b83820191506020820185811115610fe557600080fd5b825186602082028301116401000000008211171561100257600080fd5b8083526020830192505050908051906020019060200280838360005b8381101561103957808201518184015260208101905061101e565b50505050905001604052505050611054565b50505050505050565b6000808251141561106857600090506112af565b60005b82518110156112a9576000808573ffffffffffffffffffffffffffffffffffffffff1663764b020a86858151811061109f57fe5b60200260200101516040518263ffffffff1660e01b815260040180828152602001915050604080518083038186803b1580156110da57600080fd5b505afa1580156110ee573d6000803e3d6000fd5b505050506040513d604081101561110457600080fd5b8101908080519060200190929190805190602001909291905050509150915060405180606001604052808373ffffffffffffffffffffffffffffffffffffffff1681526020018215158152602001600115158152506002600087868151811061116957fe5b6020026020010151815260200190815260200160002060008201518160000160006101000a81548173ffffffffffffffffffffffffffffffffffffffff021916908373ffffffffffffffffffffffffffffffffffffffff16021790555060208201518160000160146101000a81548160ff02191690831515021790555060408201518160000160156101000a81548160ff0219169083151502179055509050507f79016943bf7f9296c2d8ebbcbdd64da6c60d9021c5bba9eb0deafa42865e7faa85848151811061123657fe5b602002602001015160008484604051808581526020018473ffffffffffffffffffffffffffffffffffffffff1681526020018373ffffffffffffffffffffffffffffffffffffffff168152602001821515815260200194505050505060405180910390a15050808060010191505061106b565b50600190505b9291505056fea26469706673582212205d4b367de346ae87a677dfef5fb07f77d455ba04cabe70c0fb1542b5de16f75664736f6c63430007060033",
  "linkReferences": {},
  "deployedLinkReferences": {}
}